:020000040800F2
:100000004007002029020008D7250008A118000891
:10001000D5250008310400088526000800000000EE
:10002000000000000000000000000000DB250008C8
:10003000F904000800000000D9250008DD250008AB
:10004000430200084302000843020008430200087C
:100050004302000843020008FB04000843020008B2
:100060004302000843020008430200084904000854
:10007000430200084302000843020008430200084C
:10008000430200084302000843020008430200083C
:10009000430200084302000843020008430200082C
:1000A000430200084302000843020008430200081C
:1000B000430200084302000843020008A518000894
:1000C00043020008430200084302000843020008FC
:1000D00043020008430200084302000843020008EC
:1000E00043020008430200084302000843020008DC
:1000F00043020008430200084302000843020008CC
:1001000043020008430200084302000843020008BB
:1001100043020008430200084302000843020008AB
:10012000430200084302000843020008430200089B
:10013000430200084302000843020008430200088B
:10014000430200084302000843020008430200087B
:10015000430200084302000843020008430200086B
:10016000430200084302000843020008430200085B
:100170004302000843020008430200080000000098
:10018000430200084302000800F002F800F03CF8C7
:100190000AA090E8000C82448344AAF10107DA45E2
:1001A00001D100F031F8AFF2090EBAE80F0013F0F8
:1001B000010F18BFFB1A43F001031847B0250000D8
:1001C000D0250000103A24BF78C878C1FAD8520769
:1001D00024BF30C830C144BF04680C6070470000C1
:1001E0000023002400250026103A28BF78C1FBD840
:1001F000520728BF30C148BF0B6070471FB502F0DF
:100200009FFA1FBD10B510BD00F0CFF81146FFF7E3
:10021000F5FF02F05BFA00F0EDF803B4FFF7F2FF30
:1002200003BC00F0F5F80000094880470948004782
:10023000FEE7FEE7FEE7FEE7FEE7FEE7FEE7FEE796
:10024000FEE7FEE704480549054A064B70470000F3
:1002500075260008890100084001002040070020A1
:10026000400300204003002053EA020C00F06980A4
:100270002DE9F04B4FF00006002B1FBFB3FA83F5BA
:1002800003FA05F424FA05F65E4012BF1643B2FAEB
:1002900082F502FA05F4C5F120051EBF22FA05FC1D
:1002A00044EA0C04203556EA044C4FEA144418BFC3
:1002B000641C4FF000084FF00009904271EB030CF2
:1002C00039D3002919BFB1FA81F701FA07F6B0FA5C
:1002D00080F700FA07F6C7F120071EBF20FA07FCD7
:1002E00046EA0C062037B6FBF4FCA7EB0507103FE7
:1002F00007F01F0BCBF120060CFA0BFB2CFA06F6CD
:1003000044BFB3460026202FA4BF5E464FF0000B2B
:100310005BEA060C08BF4FF0010B19EB0B09ABFBB6
:10032000027C48EB0608C01B06FB02CC0BFB03CC8F
:1003300071EB0C01C1E70B46024641464846BDE859
:10034000F08B13B54FF000004FF00001AFF30080C9
:10035000BDE81C4070474FF0000200B513469446BC
:100360009646203922BFA0E80C50A0E80C50B1F10D
:100370002001BFF4F7AF090728BFA0E80C5048BF21
:100380000CC05DF804EB890028BF40F8042B08BFBF
:10039000704748BF20F8022B11F0804F18BF00F8BB
:1003A000012B7047704770477047754600F02CF876
:1003B000AE4605006946534620F00700854618B052
:1003C00020B5FFF73FFFBDE820404FF000064FF09B
:1003D00000074FF000084FF0000B21F00701AC467A
:1003E000ACE8C009ACE8C009ACE8C009ACE8C00999
:1003F0008D46704710B50446AFF300802046BDE837
:100400001040FFF70ABF000000487047DC000020E2
:1004100001491820ABBEFEE726000200704700F03D
:100420000F01000900EB800001EB4000C0B27047F3
:10043000FEE70A21B0FBF1F201FB1202B0FBF1F082
:1004400042EA0010C0B27047014800F073B80000E3
:100450007C00002001681823CAB2103AB2FBF3F204
:10046000054B6FF30901032A9B5CC36500D9091D85
:1004700081650846704700004A27000810B501460C
:1004800000208B698A6A4FF0C07453B1B3F5005FE6
:1004900015D072B1012A0CD0022A0AD0032A09D140
:1004A00004E01AB1012A06D0022A03D1C96AC9019F
:1004B00000D5012010BDC96AA142FAD010BD002AA2
:1004C000F7D0012AF2D0022AF3D0032AF3D010BDCC
:1004D00030B50468256825F48025256004686360CC
:1004E0008368402B036803D099600068C26030BD08
:1004F0009A600068C16030BD7047012000F0CCB93F
:1005000072B6FEE790F83510022903D080214165CC
:1005100001207047052180F835100068016821F03E
:100520000101016000207047406D704790F8350070
:10053000704700002DE9F84304464FF00009CDF85C
:10054000009063484FF41651A56D0068B0FBF1F7B9
:100550002E6894F85C10082000FA01F131420FD0A7
:1005600021680A6852070BD50A6822F004020A6063
:1005700094F85C108840A860606D40F001006065F0
:1005800094F85C104FF0010808FA01F0304208D0EE
:1005900021684969090604D5A860606D40F0020031
:1005A000606594F85C1004208840304208D02168CF
:1005B0000968890704D5A860606D40F00400606593
:1005C00094F85C1010208840304218D021680968E7
:1005D000090714D5A86020680168490304D500689C
:1005E000000308D5A16C07E00168C90503D40168C0
:1005F00021F008010160216C09B12046884794F878
:100600005C1020208840304231D021680968C9063A
:100610002DD5A86094F8350005282068016806D01B
:10062000490347D5006800031DD4616C1CE021F02C
:10063000160101602068416921F080014161206C50
:1006400008B9A06C20B12068016821F008010160A0
:1006500094F85C103F208840A86084F8358084F8C6
:100660003490216D1FE0E16B09B120468847606D31
:1006700000282BD0606DC00714D0052084F8350009
:100680002068016821F0010101600098401C009081
:10069000B84203D820680068C007F6D184F83580D6
:1006A00084F83490E16C002910D001B02046BDE8F8
:1006B000F04308470168C905D5D4016821F010014D
:1006C000016084F8358084F83490CCE7BDE8F88385
:1006D000240000202DE9F041044600F0E1F906462F
:1006E0005CB1022084F83500002584F8345020687D
:1006F000016821F0010101600DE00120BDE8F081F9
:1007000000F0CEF9801B052805D920206065032064
:1007100084F83500F2E720680068C007F0D122684D
:10072000116820480140D4E901031843D4E9033695
:100730003343184363691843A3691843E3691843B3
:10074000236A18430843616A042903D1D4E90B13CF
:1007500019430843106020684069666A20F0070169
:1007600030460E43012704280CD1A06A0643E06AF4
:1007700040B12046FFF782FE20B14020606584F83A
:100780003570BAE7206846612046FFF763FE94F8AB
:100790005C203F2191408160656584F835700020C0
:1007A000ACE700003F8010F02DE9F0410446866D73
:1007B00090F83400002501280DD0012084F8340081
:1007C00094F835700020012F07D084F834000225FA
:1007D0002846BDE8F0810220FBE7022784F8357047
:1007E00060652046FFF774FE94F85C103F20884057
:1007F000B0602068016841F016010160206C20B1F2
:100800002068016841F0080101602068016841F03A
:1008100001010160DCE7000070B5044600F040F91A
:100820000546601C02D004480078044400F038F902
:10083000401BA042FAD370BD180000201CB501284F
:1008400025D10C20FFF7F5FD114B18700C20FFF798
:10085000F0FD58700C20FFF7ECFD98700220FFF7B8
:10086000E8FDD8700C20FFF7E4FD18710C20FFF7AD
:10087000E0FD58710C20FFF7DCFD98710720CDE9F1
:10088000003001230022D021024800F007FC1CBDEB
:100890000F00002028000020044910B50A68024219
:1008A00002D00860FFF7CAFF10BD0000143C0140F1
:1008B0002DE9F84FDFF8BCA10022012503264FF0F7
:1008C0000F090AF1040BAAF1040E00BF0B6805FA28
:1008D00002F42340A34270D10F7907F00307012FE0
:1008E00001D0022F16D187684FEA420806FA08FCA9
:1008F00027EA0C07D1F80CC00CFA08FC4CEA070CEC
:10090000C0F808C04768A7430C79C4F300149440AA
:100910003C4344600C79E443A4070AD0C4684FEA1E
:10092000420C06FA0CF7BC438F6807FA0CF7274312
:10093000C7600C7904F00304022C12D1D40800EB38
:10094000840CDCF820405707FF0E09FA07F824EA68
:100950000804D1F8108008FA07F848EA0408CCF82F
:10096000208004684FEA420C06FA0CF7BC430F796A
:1009700007F0030707FA0CF7274307604C6814F4E5
:10098000403F70D03C4C276847F48047276024687C
:1009900022F0030704F480440094384C07EB040C65
:1009A000DCF8084897074FEA177809FA08F7BC43BC
:1009B000334FB84202D1002724E054E0314FB8420F
:1009C00001D101271EE0304FB84201D1022719E0C2
:1009D0002E4FB84201D1032714E02D4FB84201D168
:1009E00004270FE02B4FB84201D105270AE02A4F18
:1009F000B84201D1062705E0284FB84201D10727A8
:100A000000E0082707FA08F72743CCF80878DAF857
:100A100000405746D1F804C09C435FEACC2C00D577
:100A20001C433C60DBF800405F46D1F804C09C43A7
:100A30005FEA8C2C00D51C433C60DEF80040774612
:100A4000D1F804C09C435FEA8C3C00D51C433C6059
:100A5000084F083F3C68D1F804C09C435FEACC3C97
:100A600000D51C433C60521C102AFFF42FAFBDE898
:100A7000F88F0000083C014044380240003001403B
:100A8000000002400004024000080240000C024046
:100A9000001002400014024000180240001C0240F6
:100AA00001488068704700001800002070477047B8
:100AB0002DE9F047026800215368C66A90F83E406D
:100AC00090F83D50102C12D0402C10D0046C002C0B
:100AD0007DD05469E443A6077AD4DE43B60577D4C3
:100AE000036C03B19169BDE8F04701F0C3BB97699E
:100AF00051694FF42A0CC9435FEAC1784FF02A4983
:100B000004D066452AD04E4528D010E0DE43B60515
:100B10000DD4C16A614501D1012103E0C16A494593
:100B200001D10821C162BDE8F04701F08FBA0E077C
:100B300016D4DE43B60513D4416CC9B21161416BC2
:100B400009B1C96B29B9816B002907D0C96B00298C
:100B500004D00068416841F400614160BDE8F0875D
:100B60008E0706D4DE43B60503D4BDE8F04701F096
:100B7000E1B9FE43526876074FEA02521DD4002ABB
:100B8000ECDB0A0608D4DA43520505D4490705D53B
:100B9000BDE8F04701F072B94907DFD4D9438905B0
:100BA000DCD4212D05D0402CD8D1BDE8F04701F090
:100BB00093BABDE8F04701F01FB9002ACEDB4A0620
:100BC0000BD4DA43520508D4490708D501E00DE0FB
:100BD0000EE0BDE8F04701F09BB84907BED4D94309
:100BE0008905BBD4BDE8F04701F029B8916970E7E9
:100BF000E10606D4D943890503D4BDE8F04701F0E6
:100C00005DBB2821212D27D0292D25D0650655D45F
:100C1000DD436D0552D4640752D590F83D30448DC4
:100C2000002C9BD01269446A2270426A521C4262B4
:100C3000428D521E4285428D002A8FD12A2B8DD1A2
:100C40000268536823F4806353602222026380F8B1
:100C50003D1000F0E5FA81E7250623D4DD436D055C
:100C600020D4640720D590F83D30448D002CF2D07C
:100C7000446A24781461426A521C4262428D521EB8
:100C80004285428D002AE6D1292BE4D102685368BF
:100C900023F4806353602122026380F83D1000F04A
:100CA000C0FA5BE76107D6D4D9438905D3D4418D17
:100CB0000029D0D0416A097811610AE06107CAD4DD
:100CC000D9438905C7D4418D0029C4D01169426A2E
:100CD0001170416A491C4162418D491E41853DE7C1
:100CE0007047000070B5040025D094F83D00002541
:100CF00020B984F83C50204600F03AFA242084F8C9
:100D00003D002068016821F0010101602068016850
:100D100041F4004101602068016821F40041016054
:100D200000F0B4FB4D4A6168914201D84C4900E0A3
:100D30004C49884201D2012070BD4B492368B0FB69
:100D4000F1F15E6826F03F060E435E6063689342F1
:100D500006D94FF4967359434FF47A73B1FBF3F10C
:100D60002368491C1E6A26F03F06314319626168F8
:100D7000914210D84900401EB0FBF1F2521CC2F360
:100D80000B02042A01D2042022E0B0FBF1F0401C47
:100D9000C0F30B001CE0A268F2B301EBC10303EB4C
:100DA0000116431EB3FBF6F35B1C43F480431B05A3
:100DB00049D092B301EBC10202EB0111401EB0FB1E
:100DC000F1F0401CC0F30B0040F4804040F40040C0
:100DD0002168CA694CF6FF739A431043C861D4E98D
:100DE000071001432068026822F0C002114301602D
:100DF000D4E9030101432068826848F2FF339A4333
:100E000011438160D4E9050108432168CA6822F0D2
:100E1000FF021043C86001E00EE016E020680168A0
:100E200041F0010101602564202084F83D00256324
:100E300084F83E50002070BD01EB4106431EB3FB19
:100E4000F6F35B1CB3E70120C2E701EB4101401E52
:100E5000B0FBF1F0401CC0F30B00B7E7A086010027
:100E600080841E0000093D0040420F00704770471B
:100E700000B512490068096888421ED1104A1078EE
:100E8000FFF7CDFA0E4BDB1F18705078FFF7C7FA4B
:100E900058709078FFF7C3FA9870D078FFF7BFFAD0
:100EA000D8701079FFF7BBFA18715079FFF7B7FACD
:100EB00058719079FFF7B3FA987100BD28000020AF
:100EC00007000020704770472DE9FC5F9946924665
:100ED0008B460446DDF83080FFF7E2FD002506462C
:100EE000009594F83D00202872D1684846F2A81178
:100EF00020270068B0FBF1F000EBC00101EB00100F
:100F000000900098401E009010D020688069C04377
:100F10008007F6D594F83C00012859D0012084F8C8
:100F20003C0020680168C9070AD00DE044F8305F32
:100F30006773A573206940F020002061257392E05B
:100F4000016841F0010101602068016821F400613D
:100F50000160222084F83D00402084F83E00256492
:100F6000C4F824800D986085608D20854848E06233
:100F7000C4F844B0C4F848A0C4F84C902565208D4E
:100F80004FF02308002865D0A06B10B34149C1631E
:100F9000A16B4148C864A06B0564A06B4564A06B5D
:100FA0008564A06B05652168238D1031626AA06B92
:100FB000FFF7FAFBB0B184F83D7084F83E5054F866
:100FC000400F40F0100000BF44F8040925704AE0CB
:100FD0005AE084F83D7084F83E5054F8400F40F0D9
:100FE0008000F1E7CDE900864B465246594620463F
:100FF00001F0C2F888B1A06BFFF784FAA06BC5635B
:101000002068016821F4806101602585658520687C
:10101000016821F00101016025E0208D0128206890
:1010200013D0416841F48051416020684169816971
:10103000009184F83C50416841F48071416020681F
:10104000416841F4006141601CE0016821F4806165
:101050000160EAE7CDE900864B46524659462046F4
:1010600001F08AF810B10120BDE8FC9F20684169B9
:1010700081690091016841F40071016084F83D705C
:1010800084F83C500020EFE70220EDE72400002028
:101090000000FFFFAD1900086D190008F8B5002425
:1010A000DDE90676009490F83D50202D59D12E4D63
:1010B00046F2A81C2D68B5FBFCF505EBC50C0CEB46
:1010C000051500956D1E009506D00568AD69ED43C8
:1010D000AD070DD4009DF5E740F8304F2021417356
:1010E0008473016941F02001016104730120F8BD9E
:1010F00090F83C50012D34D0012580F83C50056813
:10110000D5F800C05FEACC7C05D1D5F800C04CF022
:10111000010CC5F800C00568D5F800C02CF4006CBF
:10112000C5F800C0212580F83D50402580F83E508C
:10113000046447624685458D05850C4DC562416452
:101140008264C364046501680A6842F480720A60BC
:1011500080F83C400068416841F4E0614160002053
:10116000F8BD0220F8BD0000240000200000FFFFB1
:1011700070B586B0064614216846FFF7ECF823499F
:10118000306888423FD122480025016841F00201C1
:1011900001600068694600F002000590C0200090E0
:1011A0001220CDE901050320039004200490194882
:1011B000FFF77EFB16481030016841F40011016012
:1011C0000068164C00F4001005901348206040059C
:1011D000C4E90105C013C4E9035080106561C4E986
:1011E0000650256220466562FFF774FA08B1FFF7E2
:1011F00087F9B463002211461F20A66300F07AF835
:101200001F2000F069F806B070BD000000540040D7
:101210003038024000040240106002407C00002090
:1012200070477047024881680278114481607047B6
:10123000180000200B4810B5016841F400710160EE
:10124000016841F480610160016841F480710160CE
:10125000032000F06FF80F2000F006F800F024F8EB
:10126000002010BD003C024070B50D4D04464FF407
:101270007A712878B1FBF0F00A490968B1FBF0F007
:1012800000F0FAFA48B9102C07D200222146501E6D
:1012900000F030F800206C6070BD012070BD0000CF
:1012A00018000020240000200A4808B5016841F415
:1012B00080410160006800F4804000900548001FF4
:1012C000016841F080510160006800F0805000909A
:1012D00008BD000044380240002809DB00F01F026E
:1012E000012191404009800000F1E020C0F8001188
:1012F00070470000F0B40E4B1B680C46C3F302238A
:10130000C3F10705042D00D90425191D072901D2B1
:10131000002300E0DB1E012606FA05F1491E2140EC
:1013200099409E40761E16403143F0BC01F0ABB9A7
:101330000CED00E0064900F0070208684FF6FF03D5
:10134000184040EA0220034A10430860704700003A
:101350000CED00E00000FA052DE9F0470E4605000F
:1013600065D0DFF81481D8F80000F7B200F007006C
:10137000B04207D288F80070D8F8000000F00700EB
:10138000B04254D128683D4C810712D5400703D59F
:10139000206840F4E05020602878000703D52068DA
:1013A00040F4604020602068A96820F0F000084305
:1013B00020602878C0072DD0304968680839012896
:1013C00012D0022813D0032811D0096889070029F8
:1013D0002DDA216821F0030101432160FFF760FB52
:1013E000814641F2883A0EE009688903EFE709680F
:1013F0008901ECE7FFF754FBA0EB0901514502D945
:101400000320BDE8F0872068696800F00C00B0EBAD
:10141000810FEFD1D8F80010404601F00701B1422A
:1014200007D90770006800F00700B04201D0012022
:10143000E7E72878400705D52068E96820F4E05000
:10144000084320602878000706D52068296920F421
:10145000604040EAC100206000F028F82168084A96
:10146000C1F30311515CC840064908600648006892
:10147000FFF7FAFE0020C4E7003C024008380240B3
:1014800052270008240000201C00002004480549C1
:1014900000680968044AC1F38221515CC840704762
:1014A000240000200838024062270008154810B5C3
:1014B000006810F00C02144813D04110042A0FD019
:1014C000082A0ED10F4C241F2268236802F03F0225
:1014D0005B0207D52068C0F38810A0FB010106E07D
:1014E000084610BD2168C1F38811A1FB000100234B
:1014F000FEF7BAFE2168C1F30141491C4900B0FB67
:10150000F1F010BD083802400024F4002DE9F84F36
:1015100004006ED02078DFF84C93C007A9F10405D1
:101520004AD009F104000168C1F38101012908D002
:101530000068C0F3810002280AD1D9F800004002F7
:1015400006D52868800337D560680028E1D033E0ED
:101550006068B0F5803F10D0B0F5A02F286810D09B
:1015600020F480302860286820F48020286060689B
:10157000A8B1FFF795FA06460DE0286840F48030E0
:10158000F4E740F480202860F7E700BFFFF788FA0F
:10159000801B642873D828688003F7D50CE0FFF718
:1015A0007FFA064605E000BFFFF77AFA801B642841
:1015B000F0D828688003F7D42078DFF8AC82800761
:1015C0004FF0000A3ED5A748001D016811F00C0F2E
:1015D00008D00068C0F3810002280BD1D9F80000C0
:1015E000400207D42868800716D5E068012800D19A
:1015F00012E033E1E068B8B10120C8F80000FFF75D
:101600004FFA064605E000BFFFF74AFA801B0228A2
:10161000C0D828688007F7D52868216920F0F8002D
:1016200040EAC10028600DE0C8F800A0FFF738FAD2
:10163000064604E0FFF734FA801B02281FD828680A
:101640008007F7D42078000722D5864F8748616944
:10165000703771B101210160FFF722FA064604E0FC
:10166000FFF71EFA801B022809D838688007F7D5D3
:101670000EE0C0F800A0FFF713FA064605E082E08E
:10168000FFF70EFA801B02287DD838688007F7D450
:101690002078400768D5DFF8CCB100270BF13C0B70
:1016A000DBF80000C0000BD4DBF8001041F08051E3
:1016B000CBF80010DBF80000012700F0805000900C
:1016C0006B4E3068C00510D4306840F480703060D4
:1016D000FFF7E6F9009005E0FFF7E2F90099401AFC
:1016E000022850D83068C005F6D55E4EA0686C362A
:1016F00001280FD00528306810D020F0010030609C
:10170000306820F004003060A068B8B1FFF7C8F975
:1017100000900FE0306840F00100F4E740F0040072
:101720003060F7E7FFF7BCF90099411A41F28830C1
:10173000814266D830688007F4D50EE0FFF7B0F933
:10174000009007E0FFF7ACF90099411A41F28830A8
:10175000814256D830688007F4D42FB1DBF80010EE
:1017600021F08051CBF80010A069C8B33D49091D94
:101770000968C1F3810102294AD00228504607D0E6
:10178000C8F8600000E03CE0FFF78AF904463BE05F
:101790004746C8F86000FFF783F9064605E000BF3A
:1017A000FFF77EF9801B02282BD828688001F7D428
:1017B000D4E907010843A16A2E4A490802EB014116
:1017C000626A41EA8211084394F82C1040EA0161F0
:1017D000C9F8001001203866FFF762F9044606E0F8
:1017E0003EE000BFFFF75CF9001B022809D828681B
:1017F0008001F7D534E000BFFFF752F9001B022843
:1018000002D90320BDE8F88F28688001F4D427E0CE
:101810000128F7D0D9F80000E26900F48001914274
:101820001CD1226A00F03F01914217D147F6C071E6
:10183000626A0140B1EB821F10D1A26A4FF0FF3300
:1018400000F4403103EB5202B1EB024F06D194F8A1
:101850002C1000F07060B0EB016F01D00120D1E7D7
:101860000020CFE70438024000004742800E474284
:10187000007000400000FFFF10B5401EB0F1807FF7
:1018800001D3012010BD4FF0E02460610F216017EB
:1018900000F0F9FE0020A06107202061002010BDAB
:1018A000FEE700000148FFF703B900002800002010
:1018B00038B5806B002190F83D202B4B46F2A814E0
:1018C0001B68B3FBF4F3C3EBC30303EB8303009385
:1018D0003BB15B1E009303681B689B0505D5009B0D
:1018E000F6E7036C43F020030364436B03B1D96351
:1018F000836B03B1D96303681C6824F480641C60A3
:101900004185436B03B11965836B03B119650368A6
:101910001C6824F001041C6090F83D402023602CDA
:101920000BD0282434EA02020FD080F83D3080F832
:101930003E1000BFFFF7D4F938BD80F83D3080F885
:101940003E100164FFF7B2F838BD0268136843F037
:10195000010313600268136843F48063136001633A
:1019600080F83D40E6E700002400002070B5846B5D
:101970000025616B01B1CD63A16B01B1CD63FEF7B1
:10198000D3FD022811D02068016821F48061016034
:101990006585202084F83D0084F83E50206C40F09E
:1019A000100020642046FFF79BF970BD2DE9F0413F
:1019B000846B94F83D2094F83E50E16A20684368B7
:1019C00023F440734360636B002003B1D863A36BBF
:1019D00003B1D863212333EA02074FF022060CD06B
:1019E00036EA020701D1202D07D094F83E20002AC4
:1019F00021D0628D012A20D024E021684D6825F491
:101A000000654D6060852820292A02D02A2A07D047
:101A10000CE0236384F83D002046FFF702FC05E05C
:101A2000266384F83D002046FFF7FAFB20684168F2
:101A300041F440714160BDE8F0812268136823F4ED
:101A4000806313602268536823F44073536011F578
:101A5000803F06D0082904D0B1F12A4F01D02029B7
:101A600004D121680A6842F400720A6021684A6859
:101A700022F480524A6021684A6822F400624A6077
:101A80006085216C19B12046FFF72AF9D3E72021A0
:101A900084F83D1094F83E1084F83E00402905D0AB
:101AA000122020632046FFF7E2F9C4E720632046B6
:101AB000FFF708FABFE7000070B5044690F83D0054
:101AC00094F83E10102901D0402906D1222804D1D3
:101AD00021680A6822F400620A60282131EA0002C3
:101AE0004FF000054FF0200626D02168496809050F
:101AF00005D4602803D084F83D6084F83E50256307
:101B000020684168090537D5416821F400614160CA
:101B1000606B90F835203C49012A11D00165606B5B
:101B2000FEF7F0FC38B32068016821F00101016084
:101B300084F83D60606B1CE0256384F83D10DFE7AE
:101B4000A06B0165A06BFEF7DDFCA0B120684169C8
:101B5000C943490605D40069616A0870606A401C7F
:101B600060622068016821F00101016084F83D6035
:101B7000A06B016D884710E094F83D10602910D0EB
:101B80004169C943490605D40069616A0870606A01
:101B9000401C60622046FFF7A3F8206CC1071CD1EF
:101BA00015E084F83D6025644169C943490605D4C0
:101BB0000069616A0870606A401C606220680168A0
:101BC00021F0010101602046FEF770FFE5E7810783
:101BD00003D4410701D4000704D52068416821F4EB
:101BE000E061416094F83D00216C49070BD528283D
:101BF00009D10648E062256384F83D6084F83E50D0
:101C00002046FFF733F970BDB11800080000FFFF50
:101C100001684A69D24352050FD46FF480624A6169
:101C2000002140F8301F202242738173026942F084
:101C3000040202610173012070470020704710B553
:101C4000C26A438D0168042B06D0438D032B08D054
:101C5000438D022B1DD012E04A6822F480624A6054
:101C60000CE04B6823F480634B60042A06D0022A00
:101C700004D001680A6822F480620A600168096978
:101C8000426A1170416A491C4162418D491E418579
:101C900010BD012A30D0102A2ED0042A30D0022ABA
:101CA0002ED00A6842F400720A6001680969426A2B
:101CB0001170416A491C4162428D521E4285026880
:101CC00012690A70416A491C4162418D491E418571
:101CD00001684A6822F440724A60202180F83D1071
:101CE00090F83E200021402A80F83E100CD01221AE
:101CF0000163FFF7BCF810BD0A6822F48062D3E7E5
:101D00000A6842F48062CFE70163FFF7DBF810BD99
:101D100038B590F83D1022290FD1418D03290DD9F6
:101D200001680969426A1170416A491C4162418D2A
:101D3000491E4185418D032906D038BDC26A022A59
:101D400002D0012906D029B10068416821F48061E0
:101D5000416038BD274946F2A81300220968B1FB4B
:101D6000F3F101EB8101009101682023009C641EC6
:101D7000009422D00C68A405F8D40C6824F4806484
:101D80000C6001684C6824F4E0644C6001680969E7
:101D9000446A2170416A491C4162418D491E418556
:101DA00080F83D3090F83E1080F83E2040291DD04C
:101DB00012210163FFF75BF838BD046C44F0200486
:101DC00004644C6824F4E0644C6001680969446A66
:101DD0002170416A491C4162418D491E418580F84C
:101DE0003D3080F83E20FEF77BFF38BD0263FFF7F1
:101DF00069F838BD2400002010B5C26A90F83D1083
:101E000021290BD1418D51B1416A026809781161D4
:101E1000416A491C4162418D491E418510BD202304
:101E20000021082A13D0202A11D012F5803F0ED0AD
:101E30000268546824F4E06454601122026380F85C
:101E40003E1080F83D3000BFFFF712F810BD026869
:101E5000546824F4E06454600268146844F4007424
:101E60001460016380F83D3090F83E2080F83E1009
:101E7000402AE9D1FFF727F810BD000010B590F80F
:101E80003D1090F83E30C26A048DB4B1212903D0D0
:101E9000402B11D122290FD1418DE1B390F83E1092
:101EA000402942D0416A026809781161416A491C9F
:101EB0004162418D491E418510BD2129E8D1202371
:101EC0000021082A13D0202A11D012F5803F0ED00D
:101ED0000268546824F4E06454601122026380F8BC
:101EE0003E1080F83D3000BFFEF7C2FF10BD026813
:101EF000546824F4E06454600268146844F4007484
:101F00001460016380F83D3090F83E2080F83E1068
:101F1000402AE9D100E002E0FEF7D5FF10BD0068DD
:101F2000416821F48061416010BDBDE8104000F0BF
:101F3000D3B8000078B590F83E50C26A036B90F8B1
:101F40003D6000240168222E7AD1066D0EB9402D25
:101F500076D0056D1DB90569B5F5404F09D0458DA1
:101F600005B3468D384D012E0ED0438D022B3AD04D
:101F70005DE04A698A6900920A6842F480720A60E8
:101F8000016D491C016578BDAA4213D10A6822F48B
:101F900080620A6001684A68120503D50A6822F463
:101FA000806216E04A698A6900920A6842F4007207
:101FB0000A6039E0082A10D0202A0ED0122B0AD04D
:101FC000042A03D0022A01D0102AE7D10A6842F479
:101FD00080620A6024E0012AE0D00A6822F480626C
:101FE0000A600168DEE7042A21D0022A1FD0102AE5
:101FF0001DD00B6823F480630B6001680B6843F409
:1020000000630B6001684B681B0509D5AA4212D01A
:10201000012A10D0082A0ED0102A0CD0202A0AD06B
:1020200001684A6989690091046578BD08E00B6818
:1020300043F48063E5E74A6842F480524A60EFE780
:10204000486988690090F0E70000FFFF90F83E10B3
:10205000402910D00169B1F5804F19D0016DA9B3A5
:10206000016D012910D1416C5FF0F10201F4407162
:1020700042EAD11106E0016D0029416C05D0C9B2D8
:1020800041F0010100680161704701F0FE01F9E7CC
:1020900090F83D102129416C09D0C9B241F00101ED
:1020A00002681161416B29B1C96B49B902E001F0C5
:1020B000FE01F5E7816B0029E6D0C96B0029E3D06A
:1020C0000068416841F4006141607047FFE7416C7E
:1020D000F02201F44071CBE710B590F83D10026D8D
:1020E00022B3026D012A2FD0026D022A1DD12229AE
:1020F0002FD0428D0AB1212933D0428D002A14D12C
:10210000212912D101684A6822F4E0624A6001681C
:102110000A6842F400720A6000210163202280F8FC
:102120003D2080F83E10FEF7CEFE10BDC16C0129A7
:10213000816C02D0C1F3072108E00268C9B21161C5
:10214000016D891C016510BD816CC9B20268116105
:1021500004E001680A6842F480720A60016D491C5B
:10216000F0E7416A026809781161416A491C4162DD
:10217000418D491E418510BD2DE9F84F0446006888
:1021800089460B9D01689846174641F480610160BD
:102190002068016841F48071016000954FF0011BD7
:1021A0000022594620460A9B00F036F94FF4007A87
:1021B00040B120680068C00501D5C4F840A00320E4
:1021C000BDE8F88F216809F0FE0008612B46284918
:1021D00020460A9A00F054F9F0BB206841698069F2
:1021E00000902A4620460A9900F095F940B1206CEB
:1021F00004283AD12068016841F40071016034E09C
:10220000FEB2B8F1010F09D02168380A08612A46E8
:1022100020460A9900F07FF90028E8D1206806617D
:102220002A4620460A9900F076F90028DFD1206876
:10223000016841F4807101600095002259462046F2
:102240000A9B00F0E9F80028B3D1216809F0FF00EB
:1022500040F00100086100E007E02B4604492046F9
:102260000A9A00F00DF90028AAD00120A8E7000082
:102270000200010038B50C4690F83D2000212825C9
:10228000954302680B4605D051699169009180F829
:102290003C3038BD556825F480655560E2435407ED
:1022A00000D50121120601D5828900E0028B80F859
:1022B0003C3092B2FEF7FBFB38BD0000F8B590F859
:1022C0003D6004460068416821F4E0614160206897
:1022D000002541690091016841F001010160206819
:1022E000016821F48061016020684168090520D5FA
:1022F000474F222E48D02A2E46D0616B0968496884
:102300006185618D19B1216C41F00401216441683E
:1023100021F400614160606BFEF708F9012808D0E4
:10232000606B0765606BFEF7EDF810B1606B016DD7
:102330008847608D08B320684169C943490708D4BC
:102340000069616A0870606A401C6062608D401EAE
:10235000608520684169C943490608D40069616AFB
:102360000870606A401C6062608D401E6085608DF0
:1023700018B1206C40F004002064206C00B32046AB
:10238000BDE8F840FFF798BBA16B09684968618513
:10239000618D19B1216C41F004012164416821F47F
:1023A00000614160A06BFEF7C1F80128C1D0A06BAD
:1023B0000765A06BFEF7A6F80028BAD0A06BB6E7B9
:1023C0002A2E06D12563282084F83D002046FEF7FA
:1023D00027FF94F83D10202028290DD0216B2229B9
:1023E00001D0222E07D1256384F83D0084F83E50A9
:1023F0002046FEF715FFF8BD0649E162256384F823
:102400003D0084F83E502046FEF730FDF8BD000048
:10241000B11800080000FFFF2DE9F0471E46904666
:102420000D460446C1F30747DDF8209008E0701C14
:1024300006D0FEF735FBA0EB0900B0420FD876B10D
:102440002068012F18D0806925EA00000004000CE4
:1024500014D000214145EAD00020BDE8F0870020DB
:1024600044F8300F20216173A073216941F02001ED
:10247000216120730120F0E74069E5E70121E9E7E8
:102480002DE9F0479A4691460E46044600254FF046
:102490002008C1F3074725E020684069C043400594
:1024A00014D42068016841F40071016021686FF460
:1024B00080604861256384F83D8084F83E50206C3C
:1024C00040F00400206484F83C501FE0B9F1FF3F65
:1024D00008D0FEF7E5FAA0EB0A0149450CD8B9F19E
:1024E000000F09D02068012F13D0806926EA000070
:1024F0000004000C0BD0CFE744F8305F84F80D8067
:10250000A573206940F02000206125730120BDE8FB
:10251000F0874069EAE770B516460D4604460DE0BF
:102520002046FFF775FB08B1012070BD681C05D07F
:10253000FEF7B6FA801BA84207D835B1206840697B
:10254000C0430006ECD4002070BD002044F8300FDA
:1025500020216173A073216941F020012161207362
:10256000E2E7000000B587B014216846FDF7F3FEEE
:1025700016480021026842F080020260026802F000
:1025800080020592026842F001020260026802F0D5
:1025900001020592026842F002020260006800F047
:1025A00002000590012000904FF48810CDE9010150
:1025B00069460748FEF77CF9002211460620FEF71F
:1025C00099FE0620FEF788FE07B000BD30380240B5
:1025D00000000240FEE7FEE770477047FEF722BEAC
:1025E00030B593B030216846FDF7B5FE14210CA834
:1025F000FDF7B1FE1D480025016841F080510160E2
:10260000006800F0805011901948016841F4804141
:1026100001600068022400F48040119001200090C5
:10262000000401908001CDE90640082008904FF495
:10263000A870CDE9090404200B906846FEF766FFF8
:1026400008B172B6FEE70CA90F2081E831004FF403
:10265000A0500F90109005210CA8FEF77DFE0028D9
:1026600001D072B6FEE713B030BD00004038024022
:10267000007000400248016841F470010160704739
:1026800088ED00E0FEE70907090E002804DB00F1F1
:10269000E02080F80014704700F00F0000F1E02007
:1026A00080F8141D704700001CB50721CDE900011A
:1026B00001230022D0210448FEF706FCBDE81C409F
:1026C000C820FEF7A9B800002800002008B5FEF7D2
:1026D000B1FDFFF785FFFFF745FF144800240168AF
:1026E00041F4001101600068224600F400100090DF
:1026F00021460B20FEF7FEFD0B20FEF7EDFD0D48F9
:102700000B4901600C49C0E901144FF48041C0E954
:10271000034144618461C4610462FEF7E3FA08B1D5
:1027200072B6FEE70548FFF7BFFFFBE7303802400F
:102730000054004028000020801A060007000020F6
:102740004FF04070E1EE100A7047000610160006C8
:10275000101600000000000000000102030406073C
:102760000809000000000102030400008C27000893
:102770000000002028000000C4010008B427000861
:102780002800002018070000E001000800000000F9
:102790000000000000000000000000000000000039
:1027A0000000000001000000100000000000000018
:0427B0000024F4000D
:040000050800018965
:00000001FF
